:020000040800F2
:10000000682F002095010008B5060008B706000813
:10001000B9060008BB060008BD0600080000000085
:10002000000000000000000000000000BF06000803
:10003000C106000800000000C3060008C50600084D
:10004000AF010008AF010008AF010008AF010008D0
:10005000AF010008AF010008EB060008AF0100087F
:10006000AF010008AF010008AF010008AF010008B0
:10007000AF010008AF010008AF010008AF010008A0
:10008000AF010008AF010008AF010008AF01000890
:10009000AF010008AF010008AF010008AF01000880
:1000A000AF010008AF010008AF010008AF01000870
:1000B000AF010008AF010008AF010008AF01000860
:1000C000AF010008AF010008AF010008AF01000850
:1000D000AF01000845080008AF010008AF010008A3
:1000E000AF010008AF010008AF01000800F002F8FE
:1000F00000F040F80AA090E8000C82448344AAF182
:100100000107DA4501D100F035F8AFF2090EBAE87F
:100110000F0013F0010F18BFFB1A43F0010318473B
:10012000C8120000E8120000103A24BF78C878C155
:10013000FAD8520724BF30C830C144BF04680C60ED
:10014000704700000023002400250026103A28BF35
:1001500078C1FBD8520728BF30C148BF0B60704739
:100160001FB501F025F99DE8030001F01BF81FBD44
:1001700010B510BD01F09AF81146FFF7F1FF00F03D
:10018000A9FB01F0B8F803B4FFF7F2FF03BC01F0DC
:10019000E5F800000948804709480047FEE7FEE708
:1001A000FEE7FEE7FEE7FEE7FEE7FEE7FEE7FEE727
:1001B00004480549054A064B70470000A10900089C
:1001C000ED00000868290020682F0020682B00201F
:1001D000682B0020002804BF012070472DE9F04162
:1001E00000268AB000292EDDD34A0DF1100E3446C8
:1001F00092E888118DE8881102F11003254693E8F2
:100200008811AEE88811D2E90832CDE90832A44657
:100210004FEA0D074FF0000257F82C30994207DBE8
:10022000521CC91A9942FBDA002A18BF012500D1D5
:1002300015B130320255641C0CF1010CBCF10A0FEF
:10024000E8DB06550AE003D130210170467005E075
:100250002D2200F8012B4942FFF7BCFF0AB0002015
:10026000BDE8F0812DE9F04F9FB0302000F0D8FEBE
:10027000B24DA860302000F0D3FE6860A96801602C
:1002800000270771022404722821C1601F22ACA13B
:10029000103000F0F4FEB2A006AC90E80E10A4E816
:1002A0000E10D0E90412D0E90630CDE90C30B44884
:1002B000CDE90A120A26C0F85C66B2480F90B2A0D7
:1002C00000F0ECFAB1A000F0E9FAAFA000F0E6FA15
:1002D00000F026FA4FF00509B8A000F0DFFA02A8F6
:1002E0000F99FFF777FF02A800F0D8FAA6A000F058
:1002F000D5FA00F03FFA0F9801260128C0F2CA8013
:10030000412028704FF001084220C5F81080687025
:10031000B5A013AC90E80E10A4E80E10D0E90412BA
:10032000D0E90630CDE91712CDE919304FF0020BB4
:10033000444606AA13A9DA4601EB0A0C12F80A0091
:100340009CF801C060451ABF41230AF1010A2870D8
:10035000BAF1020FF0DDA3F15700032838BF4FF0C8
:10036000070A522B09D0104600F0BCFE0028D2BF6D
:1003700001200AF10700E86000DD0020A24A0BF12D
:1003800005012861481C02EB800C42F82010CCF8D3
:10039000041000EBC00102F1C80301EB001103EBF4
:1003A000C101CCF8780041F8200001EB80014860E1
:1003B00051F8043C5B1C41F8043C52F82000C1F8A1
:1003C000A00FC5F80C90696891E80D1000F1100BB2
:1003D00080E80D1001F1100292E80C14ABE80C1447
:1003E00001F1200292E80C148BE80C14C1F80C9077
:1003F000C0F80C900A6802606A68002A1CBF126884
:100400000260EB686A680C33D3600279002A4ED030
:10041000086801F1100B90E80C1481E80C1400F14D
:10042000100292E80C14ABE80C14D0E90823D0E9D0
:100430000AC0C1E90AC0C1E908236A784120412AFB
:1004400028BFC3461CD3432812BF394628705946DB
:10045000E3B2994210D16DA10DF14C0E91E808154F
:10046000AEE80815D1E9043CD1E90681CDE919814E
:10047000CDE9173C3C46EE60401CC0B29042E2D948
:100480002878412818BF0029FBD10F98761C864296
:100490007FF736AF00F06FF90446C8282AD20F98CC
:1004A000374940000F900A20C1F85C0614E7062285
:1004B000C2600A7A00F108010272022A1CBF0323FB
:1004C0000B70052A10D2DFE802F008030A0F0D00B6
:1004D000EA68642AD8BF032205DD0F7004E081F8C2
:1004E000008001E002220A70696809680160122137
:1004F000C160A2E74DA000F0D1F954A000F0CEF900
:1005000002A80F99FFF766FE02A800F0C7F91EA027
:1005100000F0C4F94FA000F0C1F9214602A8FFF78E
:1005200059FE02A800F0BAF917A000F0B7F91FB001
:100530000020BDE8F08F95E6C01300080000002001
:100540004448525953544F4E452050524F47524100
:100550004D2C20534F4D4520535452494E470000D7
:100560004448525953544F4E452050524F475241E0
:100570004D2C203127535420535452494E470000EC
:10058000F000002040420F000A0000004468727929
:1005900073746F6E652042656E63686D61726B2C5B
:1005A0002056657273696F6E20322E3120284C619F
:1005B0006E67756167653A2043290A0054686520B3
:1005C0006E756D626572206F662072756E73207431
:1005D00068726F756768207468652062656E63680D
:1005E0006D61726B3A2000004448525953544F4E8B
:1005F000452050524F4752414D2C2032274E442027
:10060000535452494E470000280000204448525994
:1006100053544F4E452050524F4752414D2C20339A
:1006200027524420535452494E4700005465737476
:100630002072756E6E65642073756363657373668F
:10064000756C6C79202121210A0000004C4F4F501D
:10065000533A200054494D45203A20000021817032
:100660000170417070478278802AFCD0027883182C
:10067000521C0270D9708178491C817001788029E0
:1006800004BF00210170012070478278002A04BF56
:100690000020704742788318521C4270DA780A7042
:1006A0008178491E81704178802904BF0021417002
:1006B000012070477047FEE7FEE7FEE7FEE7704760
:1006C0007047704710B5154C0421204600F089FA98
:1006D00000284FF00401204603D0BDE8104000F090
:1006E00089BABDE8104000F083BA10B5012000F0CF
:1006F000FBF970B1094C0821204600F072FA00287D
:100700004FF00801204602D000F074FA01E000F03A
:100710006FFABDE81040012000F0F2B90008014076
:1007200030B589B04FF47A7105984000B0FBF1F410
:100730000121022000F040FB03A800F0E7FA0020AE
:10074000ADF80600ADF802004FF6FF710B4DADF8A5
:100750000410ADF800006946284600F045FB012270
:10076000A1B2284600F093FB0121284600F086FB49
:1007700009B030BD7047014800F08CBB0004004058
:1007800070B5044688B04F48FFF768FF4E48FFF742
:1007900065FF012144F2050000F005FB4FF4806085
:1007A000ADF8100004208DF81300484E03258DF895
:1007B000125004A9304600F0BDF97015ADF81000D4
:1007C00018208DF813008DF8125004A9304600F05F
:1007D000B1F925208DF8140001208DF817000F20A5
:1007E0008DF815008DF8160005A800F045F9384D74
:1007F000002240F22771284600F0CAFB012240F295
:100800002551284600F0C4FB06A800F0B2FB06A95B
:10081000284600F09CFB0020ADF80800ADF804006D
:100820000C21ADF80A10ADF80600ADF80C000094EC
:100830006946284600F034FB0121284600F09FFB62
:1008400008B070BD38B5224C40F22551204600F06A
:10085000BFFB40B1204600F0B7FBC1B28DF80010DD
:100860001848FFF700FF40F22771204600F0B0FB68
:10087000002808BF38BD69461348FFF706FF012866
:1008800006D0002240F22771204600F081FB38BDDF
:100890009DF80010204600F093FB38BD10B50446CB
:1008A000007838B121780848FFF7DDFE14F8010F11
:1008B0000028F7D1BDE81040012240F2277104481A
:1008C00000F066BB002800208328002000080140BB
:1008D0000038014082B000F08FF94FF4803000F012
:1008E000A6F900F0D2F9012824D1102000F017F960
:1008F000012000F00DF9002000F0F2F9002000F0D6
:10090000FDF94FF4C06000F0F2F94FF4E0114FF43C
:10091000803000F0CEF9012000F0D3F9392000F04A
:100920009FF90028FAD0022000F0CEF900F0D3F9A8
:100930000828FBD14FF46130FFF722FF012104208A
:1009400000F031FA0426ADF800601027134D8DF841
:10095000037003248DF802406946284600F0EAF847
:100960000820ADF800008DF803708DF8024069464C
:10097000284600F0DFF80120ADF800008DF8036094
:100980008DF802406946284600F0D4F80421284634
:1009900000F02EF9FFF7CFFDF8E700000008014056
:1009A0003149086840F00100086048682F4A10404B
:1009B0004860086820F4102020F080700860086803
:1009C00020F480200860486820F4FE0048604FF45E
:1009D0001F0088600A68002042F480320A600A68BA
:1009E00000F1010012F4003F02D1B0F5A06FF6D182
:1009F000086810F4003F31D01D48026842F0100230
:100A00000260026822F003020260026842F0020201
:100A100002604868486048684860486840F4806000
:100A20004860486820F47C104860486840F4E8104A
:100A30004860086840F080700860086810F0007F27
:100A4000FBD0486820F003004860486840F002008E
:100A50004860486800F00C000828FAD105494FF0BA
:100A60000060086070470000001002400000FFF8BE
:100A70000020024008ED00E030B4C2780178012384
:100A80004FF0E02C02B3164A12680F2502F4E06220
:100A9000C2F5E062120AC2F1040425FA02F24578B6
:100AA00005FA04F485782A4022430E4C12010A55B7
:100AB000007800F01F0103FA01F140090CEB8000FF
:100AC000C0F8001130BC704701F01F0003FA00F0BD
:100AD00049090CEB8101C1F8800130BC704700006E
:100AE0000CED00E000E400E0074A00211268074B2B
:100AF00002401B6803421CBF002A012108467047C0
:100B000002490860704700000004014014040140DD
:100B100007490A6802F03802104308607047044928
:100B20000A6822F010020A600A68104308607047E1
:100B3000002002402DE9F001CB78002203F00F0CD9
:100B400013F0100F1CBF8B7843EA0C0C0B884FF08E
:100B50000F0613F0FF0F4FF0010518BF046819D0FE
:100B60000F8805FA02F31F409F420FD1970006FA43
:100B700007F824EA08040CFA07F73C43CF78282F3B
:100B800008BF436102D0482F08BF0361521C082AE6
:100B9000E6D304600A88FF2A87BF44680022BDE8C4
:100BA000F001704702F108030F8805FA03F31F40B4
:100BB0009F420FD1970006FA07F824EA08040CFABE
:100BC00007F73C43CF78282F08BF4361CF78482FE1
:100BD00008BF0361521C082AE4D34460BDE8F00159
:100BE000704702460020D2680A4218BF01207047B1
:100BF00001617047416170477448016841F001012B
:100C000001604168724A11404160016821F410217D
:100C100021F080710160016821F480210160416848
:100C200021F4FE0141604FF41F0181607047674964
:100C30000A6822F480320A600A6822F480220A607C
:100C4000B0F5803F04BF086840F4803006D0B0F5AE
:100C5000802F06BF086840F4A020704708607047E6
:100C6000002243095949012B08BF096803D0022B10
:100C70000CBF096A496A00F01F00012303FA00F063
:100C8000084218BF012210467047504A0020002138
:100C9000136813F4003F18BF0121401CB0F5A06F8A
:100CA00001D00029F3D0106810F4003018BF0120E3
:100CB0007047464A5368084323F47C131843506036
:100CC000704744490866704740494A6822F0030269
:100CD0001043486070473D48406800F00C00704782
:100CE0003A494A6822F0F002104348607047374999
:100CF0004A6822F4E06210434860704733494A680A
:100D000022F4605242EAC000486070472F494A68A6
:100D100012F00C03304A18BF042B01D0082B01D06D
:100D2000026015E04A684B6802F470124FF0020C42
:100D300013F4803F0CEB924203D04B6813F4003F56
:100D400003D0264B5A43026002E0234B5A43026011
:100D50004A68234B02F0F00212099A5CD0F800C0F6
:100D60002CFA02F24260D1F804C00CF4E06C4FEAB5
:100D70001C2C13F80CC022FA0CFCC0F808C0D1F8E7
:100D800004C00CF4605C4FEADC2C13F80C30DA4041
:100D9000C2604968134B01F44041890B595CB2FBB6
:100DA000F1F101617047094A0029916914BF0843B4
:100DB00021EA000090617047044A0029D16914BFFC
:100DC000084321EA0000D061704700000010024093
:100DD0000000FFF80000424200127A0000093D00C6
:100DE000180000201400002010B402882A4BDFF8FD
:100DF000ACC0984218BF604511D0B0F1804F1CBF05
:100E0000A0F18044B4F5806409D0A0F18044B4F529
:100E100000641CBFA0F18044B4F5406403D14C8849
:100E200022F070022243A0F18044B4F580541CBF2C
:100E3000A0F18044B4F5A05403D0CC8822F44072D1
:100E4000224302808A8882850A880285984218BFD8
:100E500060450DD0A0F18042B2F5A0321FBFA0F1D5
:100E60008042B2F5A232A0F18042B2F5A43201D1A3
:100E7000097A01860121818210BC7047002901880E
:100E800014BF41F0010121F001010180704701858B
:100E900082827047808C7047002C014000340140F2
:100EA00030B50446008A85B00D464CF6FF71084007
:100EB000E98808432082A0894EF6F3110840A988EA
:100EC0002A8911436A8910430843A081A08A4FF6FA
:100ED000FF410840A9890843A0826846FFF716FF32
:100EE000A4F18040B0F59C300CBF03980298A18912
:100EF00011F4004F00EBC00101EB0010296814BF92
:100F000049008900B0FBF1F0444A6FF0180CA2FBD5
:100F10000031490909010B0903FB0CF300EB8300C5
:100F2000A38913F4004F4FF0320314BF03EBC0004A
:100F300003EB0010A2FB00204FEA501014BF00F09A
:100F4000070000F00F000843208105B030BD028A81
:100F50004FF2FF031A400B88B1F802C043EA0C03BA
:100F6000B1F804C0C9884CEA010119431143018258
:100F700070470021018041808180C1807047002935
:100F8000818914BF41F4005121F4005181817047DF
:100F9000C1F3421301F01F014FF0010C0CFA01F1F3
:100FA000012B08BF0C3003D0022B0CBF10301430C3
:100FB000002A026814BF114322EA01010160704750
:100FC000C1F30801818070478088C0F30800704732
:100FD00010B401F01F0201240023C1F3421C04FAE3
:100FE00002F2BCF1010F04BFB0F80CC00CEA02021F
:100FF00008D0BCF1020F0CBFB0F810C0B0F814C09C
:101000000CEA0202090A008804FA01F10840002AE9
:101010001CBF00280123184610BC70471F85EB51E8
:1010200070B5064600F0A2F8056806F10B0020F046
:101030000704B4429CBF002070BD2B466A68BAB159
:101040001068A04210D304F1080188423CBF5068E8
:10105000586007D35168101941601168091B01607D
:1010600058601460101D70BD13465268002AE7D105
:101070002146284600F082F80028DED170BD10B568
:10108000203AC0F00B80B1E81850203AA0E8185080
:10109000B1E81850A0E81850BFF4F5AF5FEA027C41
:1010A00024BFB1E81850A0E8185044BF18C918C0B0
:1010B000BDE810405FEA827C24BF51F8043B40F851
:1010C000043B08BF7047D20728BF31F8023B48BF36
:1010D00011F8012B28BF20F8023B48BF00F8012B74
:1010E000704700004FF0013C50F8042B51F8043BCE
:1010F0009A4221D1A2EB0C03934313EACC1317D1EC
:1011000050F8042B51F8043B9A4215D1A2EB0C0382
:10111000934313EACC130BD150F8042B51F8043B42
:101120009A4209D1A2EB0C03934313EACC13DBD010
:101130004FF00000704700BFD01A01BAB1FA81F138
:1011400001F0180122FA01F0CB40C1F12001DBB21D
:10115000C0B2C01A2CFA01F3D11A914311EAC3119B
:10116000E6D17047704770477047000000487047ED
:1011700010290020704770477047704738B5044603
:101180000A4600206946AFF30080002808BF38BD3A
:1011900002460099204600F067F8012038BD012082
:1011A00000F07CB8F8B5AFF30080054600200C468F
:1011B000102000BF0646A819A0420DD93246694644
:1011C0000020AFF30080070008BF00F067F8009828
:1011D000A04218BF0546C419FFF7C8FF05600746BF
:1011E000F01D20F007004619284600F00AF8B44226
:1011F00008BFF8BDA21B31463868BDE8F84000F0D2
:1012000033B800210160C0E9011070471020704719
:1012100070B50446051FFFF7A9FF0068002C14BF36
:10122000446870BD002C18BFA54284BF2046646886
:10123000F8D801680A18AA4218BF456003D12A6885
:1012400005461144016028684119A1421CBF6C6029
:1012500070BD6168696021680844286070BD000045
:101260000048704708290020034640688C46002843
:1012700018BF814284BF03464068F8D818681844F4
:10128000884207D00CF1030020F00700001D411A2E
:10129000521A0146081D0A60FFF7BABF10B500F0E8
:1012A00035F8BDE8104000F02CB870477546FFF7E0
:1012B000D7FFAE4605006946534620F00700854635
:1012C00018B020B5FEF774FFBDE820404FF00006CF
:1012D0004FF000074FF000084FF0000B21F007011E
:1012E000AC46ACE8C009ACE8C009ACE8C009ACE861
:1012F000C0098D4670470446AFF300802046FEF7D4
:1013000042FF002801D000F029B8704710B501282D
:1013100005D0002103A000F027F8012010BD09A18D
:10132000F8E7000053494752544D454D3A204F7558
:1013300074206F662068656170206D656D6F7279CD
:10134000000000003A2048656170206D656D6F7285
:101350007920636F7272757074656400014918209A
:10136000ABBEFEE72600020070B505460C460A201B
:1013700000E06D1C00F011F835B128780028F8D194
:1013800002E0641C00F009F814B120780028F8D1BC
:10139000BDE870400A20AFF3008008B569468DF8BB
:1013A00000000320ABBE08BD004870470C29002098
:1013B00010B5FFF7F9FF4FF00001016010BD00000C
:1013C00000CA9A3B00E1F5058096980040420F0064
:1013D000A086010010270000E80300006400000060
:1013E0000A000000010000000814000800000020AE
:1013F0002800000028010008301400082800002000
:10140000402F000044010008000000000000000020
:1014100000000000000000000000000002040608B8
:10142000000000000102030401020304060708098A
:04000005080000ED02
:00000001FF
