:020000040800F2
:1000000000500020A11A0008E91A0008ED1A0008A3
:10001000F11A0008F51A0008F91A0008000000009B
:10002000000000000000000000000000FD1A0008B1
:10003000011B000800000000051B0008091B000848
:10004000E51A0008E51A0008E51A0008E51A000894
:10005000E51A0008E51A0008411B0008E51A000827
:10006000E51A0008E51A0008E51A0008E51A000874
:10007000E51A0008E51A0008E51A0008E51A000864
:10008000E51A0008E51A0008E51A0008E51A000854
:10009000E51A0008E51A0008E51A0008E51A000844
:1000A000E51A0008E51A0008E51A0008E51A000834
:1000B000E51A0008E51A0008E51A0008E51A000824
:1000C000E51A0008E51A0008E51A0008E51A000814
:1000D000E51A0008DD1C0008E51A0008E51A00080A
:1000E000E51A0008E51A0008E51A000800000000FB
:1000F0000000000000000000000000000000000000
:1001000000000000000000005FF808F108B5044B93
:10011000011C186800F012F808BC02BC0847C04671
:100120001004002008B5044B011C186800F0E8FE1C
:1001300008BC01BC0047C04610040020F0B55F4673
:1001400056464D464446F0B40D1C0B3583B0071C93
:10015000162D2ED907239D43EB0F8D422DD3002B57
:100160002BD1381C00F074FAC94B9D4229D8EA08FB
:10017000C84ED300F318DC689C4200D17EE163686E
:100180000322A1689343E268E318CA60916059684A
:1001900001220A43381C5A6000F05CFA201C083027
:1001A00003B03CBC90469946A246AB46F0BC02BCAC
:1001B0000847102500238D42D1D20C233B6000203C
:1001C000EEE76B0A00D18BE0042B00D9F0E0AB091D
:1001D00038339C46D900AF4E7118CC68A14215D077
:1001E000626803239A43531B0F2B00DD8BE003202F
:1001F000002B08DB78E062688243531B0F2B00DD85
:1002000081E0002B70DAE468A142F4D1012084443B
:10021000331C346908339C4200D10CE1626803212D
:100220008A43511B0F2900DDF4E07361336100291B
:100230005EDA994B9A4200D9C5E0D20893100120AA
:1002400098407368D2001843B3189A68E360A260BC
:1002500070609C60D46061468B100121994081429E
:1002600055D801420DD1032362469A43131C04332F
:1002700049009C46014204D1042349009C440842A1
:10028000FAD0032080466246D3009B199A46181C78
:10029000E146C468A04207D1CFE0002B00DB03E1B8
:1002A000E468A04200D1C8E0626843469A43531B09
:1002B0000F2BF2DD012162190D43E0686560A5682E
:1002C0001943E8608560726132610836381CD66077
:1002D00096605160D35000F0BDF9201C08305FE7F4
:1002E000E8088446C10076E7E368A168CB609960BE
:1002F000A218516801230B43381C536000F0AAF97F
:10030000201C08304CE701235B429C447EE7B46824
:100310006368032293439B465B1BD80F00220F2187
:100320009942424112060FD1AB450DD30122291C3F
:100330001143651913436160381CB5606B6000F0B0
:1003400089F9201C08302BE7544B554998468A6898
:100350001B688A46EB18013200D1BCE051495B189A
:100360001B0B1B030193381C019900F075F9021C4B
:100370008146013207D05B46E218824200D8ADE0E8
:10038000B44200D1AAE0B468626803239A4392465B
:100390005046431BD90F00220F2098424A411106B4
:1003A00001D1AA45C2D2381C00F054F90020F7E66A
:1003B000142B00D887E0542B00D9E3E02B0B6E33CD
:1003C0009C46D90007E7530A042B00D87FE0142B82
:1003D00000D9F3E0191C5B31C8008019836882469C
:1003E000834200D1DAE059680320804681438A4283
:1003F00006D308E05868011C404681438A4202D275
:100400009B689A45F6D1DA687068E260A360DC60A8
:10041000946020E70120621905430843656072611A
:1004200032615060D360381C9360515000F012F973
:10043000201C0830B4E670680DE701229144434661
:100440004A460830134200D023E7524663464046EE
:10045000184200D1ECE0101C12680838013B8242BF
:10046000F5D073684900994200D950E7002900D1BE
:100470004DE70B4200D1DFE0CC4604E7231C646962
:10048000023208339446A34200D1C1E677E6C04663
:10049000F701000000000020FF01000054080020C8
:1004A000000400200F100000A218516801230B4324
:1004B0005360E368A268381CD3609A6000F0CAF801
:1004C000201C08306CE65B339C46D90083E691091A
:1004D0003831C80081E71033019344E74046436850
:1004E0000199CB1843604A4500D180E050468168AD
:1004F000013100D18AE04846821A9B1841464B6080
:1005000007234A46134046D0D21A083291464E4A33
:10051000D31A0198021C4A441205120D9A1A111C92
:10052000381C924600F098F8411C6BD04A46801A5D
:1005300050440123184341464B684A4653444B609C
:10054000B2605060B44211D058460F283CD95A4688
:10055000606807210C3A8A43012101401143616020
:100560000520A118486088600F2A52D84046C26A08
:10057000934200D9C36241460A6B934200D802E716
:100580000B6300E7AA22520093420FD8EB0B77339C
:100590009C46D9001FE680235B01BAE77268891088
:1005A00001208840104370601A1C2EE7274A9342AE
:1005B00010D8AB0C7C339C46D9000CE6542B0ED8DB
:1005C000110B6E31C80008E70123002153604C462F
:1005D0008A46DDE6FC217E2289009446FBE5AA21BD
:1005E00049008B421DD8D10B7731C800F5E61105C3
:1005F00000D07BE70199081CB268584401210143EF
:100600005160B3E7002301209A4694E74946816090
:1006100076E7211C0831381C00F072FC4246536812
:10062000A4E70A498B420BD8910C7C31C800D4E670
:1006300073688B43736015E704229144490018E7FF
:10064000FC2080007E21C8E6081000005405000050
:100650007047C0467047C04638B5084C0023051C9B
:100660002360081C00F006FA431C02D038BC02BC10
:1006700008472368002BF9D02B60F7E72C320020C5
:1006800002780B7801300131002A01D09A42F7D06C
:10069000D01A7047F8B5071C00F0E0FA0026041CD9
:1006A0001325281C311CABDF051C381C2560F8BC49
:1006B00002BC084710B50F4B041C1868002802D074
:1006C000836B002B0DD0002C08D0012C0CD0201CEB
:1006D0002038022C0BD010BC02BC0847064B18680F
:1006E000F9E700F017FBEEE7034B5868F3E7024B1E
:1006F0009868F0E71004002088080020F0B54F4605
:100700004646C0B4194B85B0019398460323039322
:1007100099460023029301AD0127381C291CABDF49
:10072000061C43460193124C4B4603930423266058
:100730000293381C291CABDF051C0122231C211C41
:10074000A56065600C33AC3152421A6008338B42AD
:10075000FBD12368E360002323616561A36105B0D9
:100760000CBC90469946F0BC01BC0047702A0008BA
:100770008808002070B584B0151C0E1CFFF79AFF86
:1007800003950190029601AC0625281C211CABDFC5
:10079000041C201C04B070BC02BC0847F0B54746DE
:1007A00080B4051C8846161CFFF784FF114F3B1CC4
:1007B0000C3300241A68904203D001340833142CFF
:1007C000F8D1281C4146321CFFF7D4FF00280CDB6F
:1007D000301A142C04D0E4003F193B691B183B610C
:1007E00004BC9046F0BC02BC084701204042FFF721
:1007F00051FFF5E788080020F0B54F464646C0B4E3
:1008000083B080460F1C161CFFF754FF1D4B0024BD
:1008100099460C331A68904203D001340833142CE3
:10082000F8D1012E26D06D46022E1BD04046FFF790
:1008300041FF0A2600906F60301C291CABDF051CAD
:10084000002D09D001277F42381C03B00CBC904614
:100850009946F0BC02BC0847142CF5D0E4004C4487
:100860002761F1E700900C26301C291CABDF061C29
:10087000BF19DBE7142CE5D0E3004B441B696D4640
:10088000FF18D3E78808002008B5FFF7B5FF431C21
:1008900002D008BC02BC0847FFF7FCFEF9E7C046DF
:1008A00070B584B0151C0E1CFFF704FF0395019072
:1008B000029601AC0525281C211CABDF041C201C62
:1008C00004B070BC02BC0847F0B5474680B4061CB3
:1008D0008846151CFFF7EEFE124F3B1C0C3300241C
:1008E0001A68904203D001340833142CF8D1301C1C
:1008F00041462A1CFFF7D4FFA8420ED0431C0CD05F
:10090000281A142C04D0E4003F193B691B183B61E2
:1009100004BC9046F0BC02BC084701204042FFF7EF
:10092000B9FEF5E788080020F0B51F4F3B1C85B0E5
:100930000C3300241A68013209D001340833142C16
:10094000F8D10120404205B0F0BC02BC0847CD03FD
:100950000223ED0F0B4200D01D438B0501D504236C
:100960001D434B0501D504231D4308230B4202D030
:10097000042295431D4301AE019000F08BFC75608D
:10098000B0600125281C311CABDF061C002E07DBE4
:10099000E4003F190023301CFE603B612030D2E7A9
:1009A000301CFFF777FECEE7880800200EB400B5B4
:1009B0000199FFF7B9FF431C02D008BC03B01847E8
:1009C000FFF768FEF9E7C04630B583B0FFF772FE67
:1009D0000E4C0190231C0C330022196888420ED063
:1009E00001320833142AF8D101AD0224201C291C3D
:1009F000ABDF041C201C03B030BC02BC0847D20093
:100A00000123A4185B42E360EEE7C046880800209B
:100A100008B5FFF7D9FF431C02D008BC02BC084749
:100A2000FFF738FEF9E7C04630B5062909D0084D72
:100A30001824201C291CABDF041C201C30BC02BC69
:100A40000847044D1824201C291CABDF041CF4E7C4
:100A5000260002002300020030B5044D1824201C9B
:100A6000291CABDF041C30BC01BC0047260002007F
:100A70000120704708B50B4AD36A002B0FD0181815
:100A80006946884204D8D062181C08BC02BC0847DA
:100A900000F0E4F80C23036001235B42F4E7024B0F
:100AA000D362ECE7080900203032002010B50C1C9E
:100AB000081C3C22002100F04BFB80239B0163605B
:100AC0008023DB000020E36210BC02BC0847C04664
:100AD00038B50C1C0021FFF769FF051E11DB201C37
:100AE00000213C2200F034FB81231B026360802341
:100AF000DB00E362281CFFF767FF002038BC02BC64
:100B0000084701204042F9E7012040427047C046B3
:100B100030B583B06C46009000F0BCFB0E25019010
:100B2000281C211CABDF041C631C06D06042604102
:100B3000013803B030BC02BC0847201CFFF7AAFDF7
:100B4000041CF3E77047C046F0B5051C0C1C0028D8
:100B500006D000271126301C391CABDF061CC0C58F
:100B6000002C02D00023236063600020F0BC02BC94
:100B70000847C04670B5041C00251026301C291CEF
:100B8000ABDF061C002C03D026606560A560E56025
:100B9000301C70BC02BC084730B583B0FFF78AFD3B
:100BA0000924019001AD201C291CABDF041C631C2F
:100BB00004D0201C03B030BC02BC0847201CFFF747
:100BC00069FD041CF5E7C04630B583B00124002858
:100BD00018D06C46009000F05DFB12250190281C97
:100BE000211CABDF041C631C11D0FF2C0AD8002C85
:100BF00008D0231CFF215B000ED01A120A40A2422B
:100C0000F9D11C1C201C03B030BC02BC0847201CBE
:100C1000FFF740FD041CE8E70024F3E730B585B09A
:100C20000D1C6C46009000F035FB0190281C0295CD
:100C300000F030FB0F250390281C211CABDF041CA7
:100C4000631C06D060426041013805B030BC02BC74
:100C50000847201CFFF71EFD041CF3E7014B186832
:100C60007047C046100400200020704700207047E5
:100C700008B5034900F012FA08BC01BC0047C046A1
:100C80009113000810B50023041C036043608360C7
:100C900081814366C281036143618361002108222F
:100CA0005C3000F055FA064B2362064B6362064B3C
:100CB000A362064BE461E36210BC01BC0047C0467E
:100CC000E9110008191200085512000885120008E1
:100CD00070B568254D430E1C291C0C31FFF72EFA08
:100CE000041E08D00C30002323606660A060002141
:100CF0002A1C00F02DFA201C70BC02BC0847C0461C
:100D000008B5034B1868FFF7B3FF08BC01BC0047E8
:100D10006029000810B5836B041C002B1FD1114AF9
:100D2000C26301228263B82292008350B923032256
:100D30009B00C250BB239B00C218BA239B00C25029
:100D4000042140680022FFF79DFFA06809210122CD
:100D5000FFF798FFE06812210222FFF793FF10BC13
:100D600001BC0047710C0008F8B5274B1D68AB6B40
:100D7000061C002B38D0B82080002D186B68A9689D
:100D8000013B11D40C27CA5F0C1C002A11D0081C8F
:100D9000683007E06834621A12185C3A0027D25FA4
:100DA000002A06D0013BF5D22868002820D0051C77
:100DB000E4E701235B420025E381201C0123A3819A
:100DC00065662560A560656025616561A5615C302B
:100DD0000021082200F0BCF9256365636564A56401
:100DE000201CF8BC02BC0847281CFFF793FFC2E791
:100DF000301C0421FFF76CFF28600028D7D10C239A
:100E000033600024ECE7C046602900087047C04604
:100E10007047C0467047C0467047C04608B5044B8F
:100E20000449186800F03AF908BC01BC0047C04604
:100E300010040020690C000808B5044B0449186828
:100E400000F02CF908BC01BC0047C046100400208B
:100E50006D0C0008F8B5041C0F1CFFF7F9FB234DBF
:100E6000AB685E68224A03239E43B318DF1B3F0B27
:100E7000204B013F3F03201C9F4207DD0021FFF76D
:100E8000EBFBAB689B19984206D0201CFFF7E2FBF6
:100E90000020F8BC02BC08477942201CFFF7DCFBAD
:100EA00001300DD0AB68F61B012216435E60124B79
:100EB0001A68D71B201C1F60FFF7CCFB0120E8E756
:100EC000201C0021FFF7C8FBAB68C21A0F2A07DD00
:100ED0000A490968401A0849086001210A435A6012
:100EE000201CFFF7B7FB0020D3E7C046000000201E
:100EF000EF0F0000FF0F000058080020080400203A
:100F0000F0B5474680B4051C0C1E5FD0083CFFF7C7
:100F10009FFB60680127031CBB43E21880465068B2
:100F20000321884357498E68964262D00026B44612
:100F30004646506037420FD126680827A41B7F1809
:100F40009B19A668B8460127BC46464504D0E76809
:100F5000F760BE600026B44617187F680126374246
:100F60000AD167461B189068002F02D1464FB8423D
:100F700058D0D268C26090600122181C1043606093
:100F80006046E35000281ED14048834223D95A0AC4
:100F9000042A4FD89E093836F00008188268824229
:100FA0004ED051680326B1438B4204D306E051680A
:100FB000B1438B4202D292689042F8D1D368E36089
:100FC000A260D4609C60281CFFF744FB04BC9046E0
:100FD000F0BC01BC0047DB08981082404868DB0089
:100FE00002434A60C9188B68E160A360DC608C60D2
:100FF000E9E7C3184046074206D12268A41AA06850
:101000009B18E268C260906001221A436260204A25
:1010100012688C609342D6D31E4B281C1968FFF7C8
:1010200019FFD0E71E43C4608460E060A060666082
:10103000E350C8E7142A0CD8161C5B36F000ACE766
:10104000B6100123B3401E1C4B681E434E60131C98
:10105000B5E7542A03D81E0B6E36F0009DE7AA2090
:101060004000824203D8DE0B7736F00095E70A484D
:10107000824203D89E0C7C36F0008EE7FC20800074
:101080007E268AE70000002008000020FF01000003
:101090000C0400205408002054050000F0B5474619
:1010A00080B4B8229200861888460027002E18D0F7
:1010B0007568B468013D11D40C342388201C0C38A9
:1010C000002B08D0012B06D90222A35E013302D0E7
:1010D00000F03CF807436834013DEED23668002E3C
:1010E000E6D1381C04BC9046F0BC02BC0847C046A0
:1010F000F8B54F464646C0B4B82292008046161C4A
:10110000464489460027002E19D07568B468013D11
:1011100012D40C342388211C0C39002B09D0012B4C
:1011200007D90222A35E013303D0404600F00FF836
:1011300007436834013DEDD23668002EE5D1381CF6
:101140000CBC90469946F8BC02BC0847404748474B
:1011500070B5830746D0002A41D00E06013A360EFC
:10116000031C032503E0541E002A38D0221C1E70E5
:1011700001332B42F7D1032A28D9FF250D402C0239
:1011800025432C0425430F2A13D91C1C161C103E82
:1011900025606560A560E56010340F2EF7D8141C3B
:1011A000103C2409013424011B190F242240032A76
:1011B0000CD91E1C141C043C20C6032CFBD8141F85
:1011C000A4080134A40003252A401B19002A06D0D4
:1011D0000906090E013A19700133002AFAD170BCD0
:1011E00002BC0847031CC6E738B50C1C0E25495F36
:1011F00000F0C4F9002805DB236D1B18236538BCFB
:1012000002BC0847A289024B1340A381F7E7C046FE
:10121000FFEFFFFF00207047F8B51F1C8B89051CEE
:101220000C1C161CDA0506D50E23C95E002202230B
:1012300000F08EF9A389064A1340A3810E22A15E15
:10124000281C321C3B1C00F02DF8F8BC02BC0847DF
:10125000FFEFFFFF38B50C1C0E25495F00F078F951
:10126000A289431C07D080235B011343A38120651F
:1012700038BC02BC0847024B1340A381F8E7C046C4
:10128000FFEFFFFF08B50E23C95E00F021F808BC90
:1012900002BC08470023C25C0133002AFBD1581E60
:1012A0007047C04638B5094C051C00202060081C5A
:1012B000111C1A1CFFF708FB431C02D038BC02BCEF
:1012C00008472368002BF9D02B60F7E72C32002069
:1012D00038B5084C0023051C2360081CFFF798FB59
:1012E000431C02D038BC02BC08472368002BF9D04D
:1012F0002B60F7E72C32002070B5051C0C1C002673
:10130000002909D0002802D0836B002B34D00C2296
:10131000A35E0026002B03D1301C70BC02BC084722
:10132000281C211C00F0E4F8E36A061C002B05D001
:10133000E169281C00F038F8002820DBA3891A0690
:1013400020D4216B002908D0231C4033994202D0BD
:10135000281CFFF7D5FD00232363616C002904D00E
:10136000281CFFF7CDFD00236364FFF74FFD00232A
:10137000A381FFF74DFDCFE7FFF7CCFCC7E70126C0
:101380007642DBE72169281CFFF7BAFDD9E7C046A2
:1013900008B5044B011C1868FFF7AEFF08BC02BC7F
:1013A0000847C046100400201847C046F8B58A898F
:1013B00013041B14071C0C1C19073FD480231B01AA
:1013C0001A436368A281002B5FDDA66A0020002E0D
:1013D00031D0131C3D683860DA0460D5226D59079E
:1013E00006D56368D21A236B002B01D0E36BD21AA7
:1013F000E169381C002300F0A9F8421C5BD0A289E7
:101400003A4B1340002262602269A3812260D90412
:1014100002D5421C3ED02065216B3D600020002992
:1014200009D0231C4033994202D0381CFFF768FDD5
:10143000002323630020F8BC02BC08472669002073
:10144000002EF8D025680022AD1B2660990700D138
:101450006269A2600020002D04DCECE736182D1A2A
:10146000002D10DD626AE1699446381C321C2B1C89
:1014700000F06DF80028F1DCA2894023134301201D
:10148000A3814042D7E70020D5E7E36B0020002B83
:101490009BDCD0E73B68002BBED12065BCE7002277
:1014A000E169381C012300F051F8021C431C0ED0E6
:1014B000A389A66A93E73B68002BA0D01D2B9ED082
:1014C000162B9CD0A28940231343A381B3E73B682A
:1014D000002BEDD0162B01D01D2B02D13D6000203A
:1014E000A9E7A18940230B43A381A4E7FFF7FFFFEE
:1014F00038B5041C0D1C002802D0836B002B0BD0C8
:101500000C22AB5E0020002B03D0201C291CFFF70F
:101510004DFF38BC02BC0847FFF7FCFBF0E7C046B4
:1015200008B5011E06D0064B1868FFF7E1FF08BC9E
:1015300002BC0847034B04491868FFF7D9FDF6E7DA
:101540001004002060290008F114000830476047AB
:1015500038B5094C051C00202060081C111C1A1C01
:10156000FFF792F9431C02D038BC02BC084723683D
:10157000002BF9D02B60F7E72C32002038B5094C4E
:10158000051C00202060081C111C1A1CFFF706F91E
:10159000431C02D038BC02BC08472368002BF9D09A
:1015A0002B60F7E72C320020F0B507468BB00C46D5
:1015B000002835D0002925DD1A4E6D460FCE0FC507
:1015C0000FCE0FC596E80300002285E80300ADF1B9
:1015D000040109A8154651F8043FA3420EDC00227D
:1015E000E41A0132A342FBDD30327A550122AD18F4
:1015F0008142F0D1002078550BB0F0BD002AF7D021
:101600000022F1E704D13023037079700846F3E734
:101610002D2300F8013B4942FFF7C6FF0020EBE70E
:101620000120E9E7382900082DE9F002264F066875
:10163000D7F8009034464D4684460FCD0FC40FCDE9
:101640000FC495E80F0084E80F00DCF800001F4984
:101650003060D9F800200523CCF80C3009683260DE
:101660003A68F360337901F10C00D0606BB1DCF8BB
:10167000005064460FCD0FC40FCD0FC495E80F0086
:1016800084E80F00BDE8F00270479CF8083006209F
:10169000022BF060337208D003203072042B06D87E
:1016A000DFE803F00C0A03050F000123337213680F
:1016B00033601223F360E5E76429F8DD0023337219
:1016C000F5E702233372F2E7543000204C3000205B
:1016D0002DE9F04F3020A3B0FEF718FD874B804670
:1016E0003020C3F80080FEF711FD854C00F1100595
:1016F00007460FCC0FC594E80F0007C5814E08AC14
:101700004FEA134E25F8023B0FCE0FC496E80F00A8
:1017100000263E71DFF80CA202263E722826C7F88A
:101720000080FE60CAF8007085F800E007C4764DBE
:1017300024F8023B1B0C754823700A23C5F85C365D
:1017400044F6403600F008FB714800F005FBC0F29B
:101750004C066E4800F000FB6E4F00F013FADFF805
:10176000C8910296DFF8C4B121AE009605F5B058D5
:10177000694E6A4818AC00F0EFFA0FCE0FC40FCED6
:101780000FC496E80300029B84E80300002117A819
:101790000C4650F8042F9A4200F3AA8000219B1AAD
:1017A00001319A42FBDD22AE3219303102F8781C49
:1017B00001340121009EB042EBD122A8002304197C
:1017C00004F8783C04A800F0C7FA01264F4800F05E
:1017D000C3FA019600F008FA9DF822600396504E75
:1017E00010AC0FCE0FC496E80F0007C443F25001AF
:1017F0004120C2F20001087043F220100126C2F21B
:101800000000066043F251064221C2F200069DF834
:1018100043203170039E24F8023B1B0CB24223701C
:1018200065D010A908A8FEF72BFFD5F85C16082292
:1018300007230028CCBF00240124DAF8000001317E
:101840003B627B62C7F89820C8F800300523CBF8CC
:101850000040C5F86026C5F86426C5F85C16C9F8CE
:101860000030FFF7E1FE43F25100C2F200000678BB
:1018700041240122402E27D90134E4B2B44223D8B6
:101880000023432C01BF43F25001C2F200010C704F
:1018900001239A42F0D1DFF898C00DF1400EBCE868
:1018A0000F00AEE80F009CE80F00AEE807001A0C2E
:1018B0002EF8023B01348EF80020019AE4B2C9F8F8
:1018C00000200022B442DBD9019E02980136B042CA
:1018D000019684DA00F08AF943F69723984229D8D2
:1018E000029E0A2376000296C5F85C3640E7FEE7C2
:1018F00000293FF45FAF002155E700BF48300020CA
:10190000642900088429000838090020642A000896
:10191000A42900085830002038290008D4290008DC
:10192000002A0008543000204C30002020310020D4
:10193000202A000804463B4E3B4800F00DFA18AD43
:101940003A4800F009FA0FCE0FC50FCE0FC596E842
:101950000300029B002685E8030017A9304651F8D2
:10196000042F934251DB00259B1A01359A42FBDD7F
:10197000012622AF3A18303502F8785C0130009F1A
:10198000B942ECD122A90B18002703F8787C04A8EF
:1019900000F0E2F9264800F0DFF9264800F0DCF913
:1019A000251E36DD1F4E18AC0FCE0FC40FCE0FC450
:1019B00096E8030084E803003C4617A9384651F82E
:1019C000043F9D421DDB0022ED1A0132AB42FBDDDC
:1019D000012422AE3318303203F8782C0130009FF6
:1019E000B942ECD122A90818002300F8783C04A8D9
:1019F00000F0B2F90E4800F0AFF9002023B0BDE8C6
:101A0000F08F002CEBD00022E3E7002EB7D00025AA
:101A1000AFE72D230DF1110061428DF81030FFF773
:101A2000C3FDE4E738290008482A0008682A0008AE
:101A3000642A0008402A0008FFF74ABE002383708A
:101A400003704370704700BF8378802BFCD003780D
:101A50005A1CD2B2C318D970027083780133DBB23A
:101A600083700378802B01D100230370012070471D
:101A700083789BB14378C218D2780133DBB20A7005
:101A800043708378013BDBB283704378802B01D0B5
:101A900001207047002343700120704718467047AB
:101AA000002103E00A4B5B584350043109480A4BBC
:101AB00042189A42F6D3094A02E0002342F8043B56
:101AC000074B9A42F9D300F031FE00F0F1FE704767
:101AD000782A000800000020540800205408002044
:101AE00030320020FEE70000704700BFFEE700BF75
:101AF000FEE700BFFEE700BFFEE700BF704700BF84
:101B0000704700BF704700BF4FF4006008B5C4F2D3
:101B10000100042100F08CFB40B94FF40060C4F2D6
:101B200001000421BDE8084000F088BB4FF40060CC
:101B3000C4F201000421BDE8084000F081BB00BFF1
:101B400008B5012000F05EF920B90120BDE8084089
:101B500000F068B94FF40060C4F20100082100F001
:101B600067FB38B94FF40060C4F20100082100F0AF
:101B700065FBEAE74FF40060C4F20100082100F0C1
:101B80005FFBE2E730B5012189B0022000F05CFC88
:101B900003A800F0F7FB059A44F6D3535500C1F2B1
:101BA0006203A3FB05254FF480640023C4F2000404
:101BB00008A921F8203D20466946ADF80630ADF869
:101BC0000230AD094FF6FF73ADF8043000F062FC4F
:101BD0002046A9B2012200F0CBFC2046012100F0F2
:101BE000B9FC09B030BD00BF704700BF4FF4806042
:101BF00008B5C4F2000000F0BFFC08BDF0B5074610
:101C000043F2241089B0C2F20000FFF717FF43F23D
:101C1000A810C2F20000FFF711FF4FF40065012188
:101C200044F2050000F002FCC4F201054FF48063A9
:101C3000032628466946ADF8003004238DF80330AA
:101C40008DF8026000F00AF94FF4007369462846E7
:101C5000ADF800304FF460541823C4F2010401259C
:101C60008DF803308DF8026000F0F8F80F2325227C
:101C700001A88DF805308DF806308DF804208DF818
:101C8000075000F081F80022204640F2277100F052
:101C900003FD2A46204640F2255100F0FDFC02A833
:101CA00000F0E6FC204602A900F0D0FC002320460C
:101CB00004A90C220497ADF81430ADF81830ADF833
:101CC0001A20ADF81630ADF81C3000F059FC204653
:101CD000294600F0D3FC09B0F0BD00BF00B54FF4B9
:101CE000605083B0C4F2010040F2255100F0F8FCCE
:101CF000D0B94FF46050C4F2010040F2277100F0F7
:101D0000EFFC08B903B000BD11486946FFF7B0FE0B
:101D100001284FF46050C4F2010013D040F2277143
:101D2000002200F0B9FCEDE74FF46050C4F201006E
:101D300000F0D2FCC3B2194606488DF80030FFF718
:101D400083FED6E79DF8001000F0C2FCDAE700BF82
:101D5000A83100202431002010B5017839B10446A3
:101D60000848FFF771FE14F8011F0029F8D14FF45D
:101D70006050C4F2010040F227710122BDE810401A
:101D800000F08ABCA8310020C37830B47BB9037856
:101D9000012103F01F0201FA02F15A094FF46143D5
:101DA000CEF20003203243F8221030BC70474FF4CB
:101DB0006D43CEF20003DB684478DB43C3F30223B8
:101DC0000F22C3F1040122FA03F304FA01F4857827
:101DD000017803EA0502224301F160431201D2B205
:101DE00003F5614383F800230278012102F01F0309
:101DF00001FA03F14FF46143CEF20003520943F8B4
:101E00002210D2E74FF48063C4F201031A685B69C1
:101E1000034004D010420CBF002001207047184638
:101E2000704700BF4FF48063C4F2010358617047EC
:101E30004FF40053C4F202031A6802F03802104350
:101E4000186070474FF40053C4F202031A6822F07E
:101E500010021A601A68104318607047CA7830B4CC
:101E6000D30648BF8B7802F00F0448BF1C430B8891
:101E700013F0FF0F3CD0482A016800F0A480282A04
:101E800000F0098113F0010F1CBF21F00F01214365
:101E900013F0020F1CBF21F0F00141EA041113F00E
:101EA000040F1CBF21F4706141EA042113F0080FF4
:101EB0001CBF21F4704141EA043113F0100F1CBF24
:101EC00021F4702141EA044113F0200F1CBF21F4DA
:101ED000700141EA045113F0400F1CBF21F0706102
:101EE00041EA046113F0800F18BF64F31F710160B1
:101EF000FF2B33D9482A416832D0282A00F09A8033
:101F0000DA0544BF21F00F0121439A0544BF21F0B7
:101F1000F00141EA04115A0544BF21F4706141EA1D
:101F200004211A0544BF21F4704141EA0431DA0466
:101F300044BF21F4702141EA04419A0444BF21F4D2
:101F4000700141EA04515A0444BF21F0706141EA32
:101F500004611B0448BF64F31F71416030BC7047CB
:101F600003F4807292B2002A40F0CE8003F4007233
:101F700092B2002A40F0C28003F4806292B2002A3A
:101F800040F0D98003F4006292B2002A40F0CD8084
:101F900003F4805292B2002A40F0C18003F4005250
:101FA00092B2002A40F0B58003F4804292B2002A37
:101FB00040F0C78003F400439BB2002BCDD064F304
:101FC0001F710361C9E713F0010518BF056103F034
:101FD000020518BF21F00F01ADB218BF2143002D3B
:101FE00040F0208103F00405ADB2002D40F01481D3
:101FF00003F00805ADB2002D40F0088103F0100594
:10200000ADB2002D40F0FC8003F02005ADB2002DF4
:1020100040F0F08003F04005ADB2002D40F0E480C8
:1020200003F08005ADB2002D3FF461AF64F31F7182
:1020300005615CE703F4807292B2002A40F0AB8045
:1020400003F4007292B2002A40F09F8003F4806291
:1020500092B2002A40F0938003F4006292B2002A08
:1020600040F0878003F4805292B2002A7BD103F4BF
:10207000005292B2002A70D103F4804292B2002A38
:1020800065D103F400439BB2002B3FF466AF64F3C9
:102090001F71436161E713F0010518BF456103F04B
:1020A000020518BF21F00F01ADB218BF2143002D6A
:1020B00040F08E8003F00405ADB2002D40F0828028
:1020C00003F00805ADB2002D76D103F01005ADB2D6
:1020D000002D6BD103F02005ADB2002D60D103F0CF
:1020E0004005ADB2002D79D103F08005ADB2002DD1
:1020F0003FF4FDAE64F31F714561F8E621F0F00195
:1021000041EA0411026137E721F00F012143026126
:102110002CE721F4700141EA0451026144E721F403
:10212000702141EA0441026138E721F4704141EA3B
:10213000043102612CE721F4706141EA042102615B
:1021400020E721F0706141EA0461026132E721F089
:10215000706141EA0461426193E721F4700141EA50
:102160000451426188E721F4702141EA044142614F
:102170007DE721F4704141EA0431426172E721F4C4
:10218000706141EA0421426166E721F0F00141EA11
:10219000041142615AE721F00F01214342614FE7E8
:1021A00021F4700141EA0451456198E721F470215E
:1021B00041EA044145618DE721F4704141EA04316F
:1021C000456182E721F4706141EA0421456177E7C6
:1021D00021F0F00141EA041145616BE721F07061E3
:1021E00041EA046145617FE721F0706141EA0461E1
:1021F000056115E721F4700141EA0451056109E721
:1022000021F4702141EA04410561FDE621F47041A9
:1022100041EA04310561F1E621F4706141EA0421EB
:102220000561E5E621F0F00141EA04110561D9E616
:10223000C36819420CBF002001207047016170473C
:10224000416170474FF48053C4F2020319680022C1
:1022500041F0010119605968CFF6FF020A405A6047
:102260001A6822F0847222F480321A601A6822F40A
:1022700080221A605A6822F4FE025A604FF41F024C
:102280009A6070474FF48053C4F202031A68B0F5A5
:10229000803F22F480321A601A6822F480221A6089
:1022A00007D0B0F5802F03D11A6842F4A0221A603B
:1022B00070471A6842F480321A60704782B04FF457
:1022C000805200230193C4F2020213689B030CD5D1
:1022D000019B01330193019B4FF48053C4F202032D
:1022E0001868C0F3404002B07047019B013301936E
:1022F000019BB3F5A06FE8D1EEE700BF4FF4805328
:10230000C4F202035A6822F47C121043014359605C
:10231000704700BF6023C4F242231860704700BFBB
:102320004FF48053C4F202035A6822F003021043B0
:10233000586070474FF48053C4F20203586800F0AD
:102340000C0070474FF48053C4F202035A6822F025
:10235000F0021043586070474FF48053C4F20203F8
:102360005A6822F4E0621043586070474FF480537B
:10237000C4F202035A6822F4605242EAC000586074
:10238000704700BF4FF48053C4F202035A6810B480
:1023900002F00C02042A01D0082A28D04FF49052EF
:1023A000C0F27A0202604FF48053C4F202035C6808
:1023B0001C49C4F303140C5D22FA04F242605C6809
:1023C000C4F302240C5D22FA04F484605C68C4F354
:1023D000C224095D22FA01F2C2605B681249C3F3AC
:1023E0008133CB5CB2FBF3F2026110BC70475A68D8
:1023F0005968C2F383420232CC030AD55B68990361
:1024000007D44FF49053C0F27A0303FB02F2026048
:10241000C9E74FF41063C0F23D0303FB02F2026010
:10242000C1E700BF44080020400800204FF480535B
:10243000C4F202039A6919B922EA00009861704750
:1024400010439861704700BF4FF48053C4F20203F9
:10245000DA6919B922EA0000D86170471043D861DF
:10246000704700BF4309012B0ED0022B4FF480535D
:10247000C4F202030CBF1B6A5B6A00F01F0023FA60
:1024800000F000F0010070474FF48053C4F20203E3
:102490001B68F2E770B44FF430524FF45054C4F25A
:1024A00001020388C4F20104904218BFA0429BB20B
:1024B00014BF0022012208D04FF48064C4F200044B
:1024C000B0F1804F18BFA04236D14FF68F754C88BF
:1024D0001D4045EA04034FF4A0564FF48055C4F262
:1024E0000005C4F20006B04218BFA8421FBFCD8845
:1024F0004FF6FF441C4044EA05038D880C88038096
:10250000858504855AB94FF488424FF48043C4F25C
:102510000102C4F20103984218BF904205D10B7A20
:1025200003860123838270BC70474FF49043C4F24A
:1025300001039842F5D1F2E74FF440654FF400648F
:10254000C4F20005C4F20004A04218BFA842C2D1E0
:10255000BBE700BF038829B923F001031B041B0C50
:10256000038070479BB243F001030380704700BFB4
:1025700001858282704700BF808C80B2704700BFA7
:10258000038ACA8823F440531B041B0C134370B501
:102590000382838904468A88088923F4B0530D4650
:1025A00023F00C03498902431B040A431B0C134309
:1025B0009BB2A381A38AAA8923F440731B041B0C3A
:1025C00086B01343A38201A8FFF7DCFE4FF46053EB
:1025D000A289C4F201039C4212B20CBF049B039B6C
:1025E000002A21DB286803EB830303EB83038000CD
:1025F000B3FBF0F148F21F53C5F2EB13A3FB01024A
:10260000A089520900B216016425002802FB1512A8
:1026100013DB12013232A3FB0203C3F34313334330
:102620009BB2238106B070BD2A6803EB830303EBE2
:1026300083035200B3FBF2F1DCE7D2003232A3FB9A
:102640000213C3F342133343EAE700BF0A8830B4EE
:10265000038A4D888C882A43C98823F470632243F7
:102660001B040A431B0C13439BB2038230BC70470C
:102670000023038043808380C3807047838929B906
:1026800023F400531B041B0C838170479BB243F45B
:1026900000538381704700BF01F01F0310B4C1F3E2
:1026A00042110124A14204FA03F30DD002290DD0F6
:1026B00014302AB9026822EA0303036010BC704791
:1026C000026813430360F9E70C30F2E71030F0E7DB
:1026D000C905C90D818070478088C005C00D70474D
:1026E000C1F3421310B401F01F020124012B04FABC
:1026F00002F416D0022B0CBF028A828A92B22240C8
:102700000123090A03FA01F103889BB219420CBFA5
:1027100000200120002A0CBF002000F0010010BCA6
:102720007047828992B22240EAE700BF4FF480539B
:10273000C4F202031968002241F0010119605968CE
:10274000CFF6FF020A405A601A68002122F0847214
:1027500022F480321A601A6882B022F480221A6051
:1027600058681A4620F4FE0058604FF41F00986025
:1027700000910191196841F48031196003E0009BD8
:10278000B3F5A06F09D0136803F400330193009BE5
:1027900001330093019B002BF1D04FF48053C4F21E
:1027A00002031B6813F4003308BF019301D0012317
:1027B0000193019B012B08D04FF46D43CEF200032F
:1027C0004FF000629A6002B070474FF40052C4F2BA
:1027D000020211684FF4805341F01001116011683A
:1027E000C4F2020321F0030111601068194640F0A1
:1027F000020010605A685A605A685A605A6842F477
:1028000080625A605A6822F47C125A605A6842F414
:10281000E8125A601A6842F080721A600A684FF42F
:1028200080539201C4F20203F8D559681A4621F088
:1028300003015960596841F002015960536803F07F
:102840000C03082BFAD1B7E710B5FFF7FBFC4FF4E8
:102850008030FFF717FDFFF731FD0128044600D057
:1028600010BD1020FFF7EEFA2046FFF7E1FA002036
:10287000FFF768FD0020FFF779FD4FF4C060FFF718
:102880006BFD4FF480304FF4E011FFF737FD204629
:10289000FFF740FD3920FFF7E5FD0028FAD00220C0
:1028A000FFF73EFDFFF746FD0828FBD110BD00BF36
:1028B00070B582B0FFF7C8FF4FF46130FFF79EF9A3
:1028C00004200121FFF7B2FD04234FF4006003242C
:1028D0000DEB03011025C4F201001E46ADF80430D3
:1028E0008DF807508DF80640FFF7B8FA4FF40060F6
:1028F0000823C4F2010001A9ADF804308DF8075097
:102900008DF80640FFF7AAFA4FF400600123C4F2E5
:10291000010001A9ADF804308DF807608DF806407C
:10292000FFF79CFA4FF40060C4F201000421FFF7A6
:1029300085FCFFF781F8F5E700CA9A3B00E1F50551
:102940008096980040420F00A086010010270000EA
:10295000E8030000640000000A000000010000001D
:10296000180400204448525953544F4E45205052A9
:102970004F4752414D2C20534F4D452053545249FF
:102980004E4700004448525953544F4E4520505230
:102990004F4752414D2C2031275354205354524914
:1029A0004E4700004468727973746F6E652042650B
:1029B0006E63686D61726B2C2056657273696F6E01
:1029C00020322E3120284C616E67756167653A2090
:1029D00043290A00546865206E756D626572206F28
:1029E000662072756E73207468726F7567682074E4
:1029F00068652062656E63686D61726B3A200000E5
:102A00004448525953544F4E452050524F4752411B
:102A10004D2C2032274E4420535452494E4700003B
:102A20004448525953544F4E452050524F475241FB
:102A30004D2C203327524420535452494E47000016
:102A400054494D45203A2000546573742072756EC8
:102A50006E6564207375636365737366756C6C79FA
:102A6000202121210A0000004C4F4F50533A2000F2
:082A70003A74740043000000F9
:102A7800000000000000000000000020000000200E
:102A8800080000200800002010000020100000208E
:102A9800180000201800002020000020200000203E
:102AA80028000020280000203000002030000020EE
:102AB800380000203800002040000020400000209E
:102AC800480000204800002050000020500000204E
:102AD80058000020580000206000002060000020FE
:102AE80068000020680000207000002070000020AE
:102AF800780000207800002080000020800000205E
:102B0800880000208800002090000020900000200D
:102B18009800002098000020A0000020A0000020BD
:102B2800A8000020A8000020B0000020B00000206D
:102B3800B8000020B8000020C0000020C00000201D
:102B4800C8000020C8000020D0000020D0000020CD
:102B5800D8000020D8000020E0000020E00000207D
:102B6800E8000020E8000020F0000020F00000202D
:102B7800F8000020F80000200001002000010020DB
:102B88000801002008010020100100201001002089
:102B98001801002018010020200100202001002039
:102BA80028010020280100203001002030010020E9
:102BB8003801002038010020400100204001002099
:102BC8004801002048010020500100205001002049
:102BD80058010020580100206001002060010020F9
:102BE80068010020680100207001002070010020A9
:102BF8007801002078010020800100208001002059
:102C08008801002088010020900100209001002008
:102C18009801002098010020A0010020A0010020B8
:102C2800A8010020A8010020B0010020B001002068
:102C3800B8010020B8010020C0010020C001002018
:102C4800C8010020C8010020D0010020D0010020C8
:102C5800D8010020D8010020E0010020E001002078
:102C6800E8010020E8010020F0010020F001002028
:102C7800F8010020F80100200002002000020020D6
:102C88000802002008020020100200201002002084
:102C98001802002018020020200200202002002034
:102CA80028020020280200203002002030020020E4
:102CB8003802002038020020400200204002002094
:102CC8004802002048020020500200205002002044
:102CD80058020020580200206002002060020020F4
:102CE80068020020680200207002002070020020A4
:102CF8007802002078020020800200208002002054
:102D08008802002088020020900200209002002003
:102D18009802002098020020A0020020A0020020B3
:102D2800A8020020A8020020B0020020B002002063
:102D3800B8020020B8020020C0020020C002002013
:102D4800C8020020C8020020D0020020D0020020C3
:102D5800D8020020D8020020E0020020E002002073
:102D6800E8020020E8020020F0020020F002002023
:102D7800F8020020F80200200003002000030020D1
:102D8800080300200803002010030020100300207F
:102D9800180300201803002020030020200300202F
:102DA80028030020280300203003002030030020DF
:102DB800380300203803002040030020400300208F
:102DC800480300204803002050030020500300203F
:102DD80058030020580300206003002060030020EF
:102DE800680300206803002070030020700300209F
:102DF800780300207803002080030020800300204F
:102E080088030020880300209003002090030020FE
:102E18009803002098030020A0030020A0030020AE
:102E2800A8030020A8030020B0030020B00300205E
:102E3800B8030020B8030020C0030020C00300200E
:102E4800C8030020C8030020D0030020D0030020BE
:102E5800D8030020D8030020E0030020E00300206E
:102E6800E8030020E8030020F0030020F00300201E
:102E7800F8030020F8030020FFFFFFFF0000020016
:102E880018040020000000000000000004070020D3
:102E98006C070020D407002000000000000000009C
:102EA800000000000000000000000000000000001A
:102EB800000000000000000000000000742A000864
:102EC80000000000000000000000000000000000FA
:102ED80000000000000000000000000000000000EA
:102EE80000000000000000000000000000000000DA
:102EF80000000000000000000000000000000000CA
:102F080000000000000000000000000000000000B9
:102F180000000000000000000000000000000000A9
:102F28000000000000000000000000000000000099
:102F380001000000000000000E33CDAB34126DE636
:102F4800ECDE05000B00000000000000000000009F
:102F58000000000000000000000000000000000069
:102F68000000000000000000000000000000000059
:102F78000000000000000000000000000000000049
:102F88000000000000000000000000000000000039
:1032B80002040608000000000102030401020304DE
:0432C80006070809E4
:0400000508000000EF
:00000001FF
